:020000040000FA
:020000000A28CC
:10000800FE00030EF2000A08F300392A0B289F228B
:10001800F700A022F800B401B501B601B701B80194
:10002800B901F9018301812A0A3083120313A70059
:100038000030A8002C08AA002B08A900052283126A
:1000480003132708AD002D08B1000A30A7000030BF
:10005800A8000A30A0000030A1002C08A3002B083B
:10006800A200C721831203132108AA002008A900AF
:100078000522831203132708AD002D08B2000A30A9
:10008800A7000030A8006430A0000030A1002C08B0
:10009800A3002B08A200C721831203132108AA007A
:1000A8002008A9000522831203132708AD002D0894
:1000B800B300311C632883120313061666288312C3
:1000C800031306120230A0000030A1003108AD0071
:1000D800AE012D08A2002E08A3006C218312031381
:1000E8002008AF002108B0002F1C7E2883120313BC
:1000F800861681288312031386120430A00000306C
:10010800A1003108AD00AE012D08A2002E08A30001
:100118006C21831203132008AF002108B0002F1CA4
:1001280099288312031306179C28831203130613B6
:100138000830A0000030A1003108AD00AE012D0844
:10014800A2002E08A3006C21831203132008AF001D
:100158002108B0002F1CB428831203138617B72870
:10016800831203138613321CBD28831203138515CB
:10017800C0288312031385110230A0000030A100AB
:100188003208AD00AE012D08A2002E08A3006C2194
:10019800831203132008AF002108B0002F1CD828B1
:1001A800831203130517DB28831203130513043086
:1001B800A0000030A1003208AD00AE012D08A20059
:1001C8002E08A3006C21831203132008AF00210816
:1001D800B0002F1CF328831203130615F628831288
:1001E800031306110830A0000030A1003208AD004A
:1001F800AE012D08A2002E08A3006C218312031360
:100208002008AF002108B0002F1C0E298312031309
:1002180086151129831203138611331C172983129B
:10022800031385171A298312031385130230A000BC
:100238000030A1003308AD00AE012D08A2002E0841
:10024800A3006C21831203132008AF002108B0001B
:100258002F1C322983120313051435298312031323
:1002680005100430A0000030A1003308AD00AE0135
:100278002D08A2002E08A3006C2183120313200866
:10028800AF002108B0002F1C4D29831203138514D9
:1002980050298312031385100830A0000030A100F4
:1002A8003308AD00AE012D08A2002E08A3006C2172
:1002B800831203132008AF002108B0002F1C6829FF
:1002C8008312031305150800831203130511080090
:1002D80083120313A501A11F7829A009A109A00A67
:1002E8000319A10AA501A50AA31F8329A209A30925
:1002F800A20A0319A30A0130F4007408A506A6018E
:10030800A701200821040319BA29A401A40AA11BE2
:10031800992901300310A00DA10DFF3E031D8E2960
:100328000130F4007408A4078B2901300310A60DCE
:10033800A70DFF3E031D9A2921082302031DA629A4
:1003480020082202031CAF292008A2022108031C4E
:10035800A303A302261401300310A10CA00CFF3E36
:10036800031DB0290130A402031D9929250803198A
:10037800C229A609A709A60A0319A70A2708A100DE
:100388002608A000080083120313A501A60120086F
:1003980021040319002AA401A40AA11BDF290130A2
:1003A8000310A00DA10DFF3E031DD4290130F40058
:1003B8007408A407D12901300310A50DA60DFF3E2E
:1003C800031DE02921082302031DEC29200822022D
:1003D800031CF5292008A2022108031CA303A30279
:1003E800251401300310A10CA00CFF3E031DF629B3
:1003F8000130A402031DDF292608A1002508A0005A
:10040800080083120313270828040319342AF60165
:10041800F60AA81B1B2A01300310A70DA80DFF3EE2
:10042800031D102A0130F5007508F6070D2A280863
:100438002A02031D212A27082902031C292A270822
:10044800A9022808031CAA03AA0201300310A80C59
:10045800A70CFF3E031D2A2A0130F602031D1B2AA2
:100468002A08A8002908A7000800013083120313EE
:10047800B6070318B70A0030B707833081000B119D
:100488000618502A770878040319502A0130B8074B
:100498000318B90A0030B90706080139F000F1015C
:1004A8007008F7007108F80073088A00720E83005C
:1004B800FE0E7E0E09000730831203139F00831679
:1004C800031385010330860083120313850103306B
:1004D80086008316031381128111011581100114FE
:1004E80083308312031381008B120B110B178B17A8
:1004F8000030AB00AC00182008005F228312031301
:1005080086188C2A833081008B160B11B801B9012B
:100518004C3036061D3003193706031D822A390868
:10052800AC003808AB0018208B120B1183308312F3
:0A05380003138100822A013400340D
:02400E0038FF79
:00000001FF
